{
  "_format": "hh-sol-artifact-1",
  "contractName": "Tornado",
  "sourceName": "contracts/Tornado.sol",
  "abi": [
    {
      "inputs": [
        {
          "internalType": "address",
          "name": "_hasher",
          "type": "address"
        },
        {
          "internalType": "address",
          "name": "_verifier",
          "type": "address"
        }
      ],
      "stateMutability": "nonpayable",
      "type": "constructor"
    },
    {
      "inputs": [],
      "name": "ReentrancyGuardReentrantCall",
      "type": "error"
    },
    {
      "anonymous": false,
      "inputs": [
        {
          "indexed": false,
          "internalType": "uint256",
          "name": "root",
          "type": "uint256"
        },
        {
          "indexed": false,
          "internalType": "uint256[10]",
          "name": "hashPairs",
          "type": "uint256[10]"
        },
        {
          "indexed": false,
          "internalType": "uint8[10]",
          "name": "pairDirections",
          "type": "uint8[10]"
        }
      ],
      "name": "Deposit",
      "type": "event"
    },
    {
      "anonymous": false,
      "inputs": [
        {
          "indexed": false,
          "internalType": "address",
          "name": "to",
          "type": "address"
        },
        {
          "indexed": false,
          "internalType": "uint256",
          "name": "nullifierHash",
          "type": "uint256"
        }
      ],
      "name": "Withdraw",
      "type": "event"
    },
    {
      "inputs": [
        {
          "internalType": "uint256",
          "name": "",
          "type": "uint256"
        }
      ],
      "name": "commitments",
      "outputs": [
        {
          "internalType": "bool",
          "name": "",
          "type": "bool"
        }
      ],
      "stateMutability": "view",
      "type": "function"
    },
    {
      "inputs": [],
      "name": "denomination",
      "outputs": [
        {
          "internalType": "uint256",
          "name": "",
          "type": "uint256"
        }
      ],
      "stateMutability": "view",
      "type": "function"
    },
    {
      "inputs": [
        {
          "internalType": "uint256",
          "name": "_commitment",
          "type": "uint256"
        }
      ],
      "name": "deposit",
      "outputs": [],
      "stateMutability": "payable",
      "type": "function"
    },
    {
      "inputs": [
        {
          "internalType": "uint8",
          "name": "",
          "type": "uint8"
        }
      ],
      "name": "lastLevelHash",
      "outputs": [
        {
          "internalType": "uint256",
          "name": "",
          "type": "uint256"
        }
      ],
      "stateMutability": "view",
      "type": "function"
    },
    {
      "inputs": [],
      "name": "nextLeafIdx",
      "outputs": [
        {
          "internalType": "uint256",
          "name": "",
          "type": "uint256"
        }
      ],
      "stateMutability": "view",
      "type": "function"
    },
    {
      "inputs": [
        {
          "internalType": "uint256",
          "name": "",
          "type": "uint256"
        }
      ],
      "name": "nullifierHashes",
      "outputs": [
        {
          "internalType": "bool",
          "name": "",
          "type": "bool"
        }
      ],
      "stateMutability": "view",
      "type": "function"
    },
    {
      "inputs": [
        {
          "internalType": "uint256",
          "name": "",
          "type": "uint256"
        }
      ],
      "name": "roots",
      "outputs": [
        {
          "internalType": "bool",
          "name": "",
          "type": "bool"
        }
      ],
      "stateMutability": "view",
      "type": "function"
    },
    {
      "inputs": [],
      "name": "treeLevel",
      "outputs": [
        {
          "internalType": "uint8",
          "name": "",
          "type": "uint8"
        }
      ],
      "stateMutability": "view",
      "type": "function"
    },
    {
      "inputs": [
        {
          "internalType": "uint256[2]",
          "name": "a",
          "type": "uint256[2]"
        },
        {
          "internalType": "uint256[2][2]",
          "name": "b",
          "type": "uint256[2][2]"
        },
        {
          "internalType": "uint256[2]",
          "name": "c",
          "type": "uint256[2]"
        },
        {
          "internalType": "uint256[2]",
          "name": "input",
          "type": "uint256[2]"
        }
      ],
      "name": "withdraw",
      "outputs": [],
      "stateMutability": "payable",
      "type": "function"
    }
  ],
  "bytecode": "0x6080604052600a600260146101000a81548160ff021916908360ff16021790555067016345785d8a000060035560006004556040518061014001604052807f2b9ec24cd10bfb05a5a5e141f0b562435ae8060c589f582c8af7bae20f3025cd81526020017fe67e481a5a5559d8cf12c9ac37f282a1456f2d6b37c66642d5cfb19199cfc54581526020017fd786d8bc9b95807d2304cd59e17e350b770577c2fec4b6161c652a8271e1ecd681526020017f968e668cbaaba222be08e94d6cd3cdb486769ae9b3252ac4797db851917861fd81526020017f301264c8d2540239594a4d6ecb152a2873548ca780391cc22d6f18683e5a476f81526020017fd2d9f40b1723dd7b5bcf28dbdb75b48e74c17054db4a303b7a0ab014f00f13c581526020017f500c28cedc885a24269203c5b7dcd65679e75157910e2cca587267f77bfdcb2f81526020017f23d466a1c9040dc73382deda6777123848b62b3059845df2c38afd60653db51081526020017f5dda9888ab5c3a7ae116960f10c4dda3725a8056d6aeb09e23a87534a18e374a81526020017f0fdd92cd53503b7a08d957d8a4dbf1016b6e52c8ab845ba81aea1a4612d87978815250600990600a620001c99291906200028f565b50348015620001d757600080fd5b5060405162001e1b38038062001e1b8339818101604052810190620001fd91906200035d565b600160008190555081600160006101000a81548173ffffffffffffffffffffffffffffffffffffffff021916908373ffffffffffffffffffffffffffffffffffffffff16021790555080600260006101000a81548173ffffffffffffffffffffffffffffffffffffffff021916908373ffffffffffffffffffffffffffffffffffffffff1602179055505050620003a4565b82600a8101928215620002c1579160200282015b82811115620002c0578251825591602001919060010190620002a3565b5b509050620002d09190620002d4565b5090565b5b80821115620002ef576000816000905550600101620002d5565b5090565b600080fd5b600073ffffffffffffffffffffffffffffffffffffffff82169050919050565b60006200032582620002f8565b9050919050565b620003378162000318565b81146200034357600080fd5b50565b60008151905062000357816200032c565b92915050565b60008060408385031215620003775762000376620002f3565b5b6000620003878582860162000346565b92505060206200039a8582860162000346565b9150509250929050565b611a6780620003b46000396000f3fe6080604052600436106100865760003560e01c8063b6b55f2511610059578063b6b55f251461015b578063b8e7956414610177578063c2b40ae4146101a2578063c78784d7146101df578063d5400047146101fb57610086565b80631f79a1e91461008b57806345e0523f146100c857806349ce8997146100f35780638bca6d1614610130575b600080fd5b34801561009757600080fd5b506100b260048036038101906100ad9190610b70565b610238565b6040516100bf9190610bb8565b60405180910390f35b3480156100d457600080fd5b506100dd610258565b6040516100ea9190610be2565b60405180910390f35b3480156100ff57600080fd5b5061011a60048036038101906101159190610b70565b61025e565b6040516101279190610bb8565b60405180910390f35b34801561013c57600080fd5b5061014561027e565b6040516101529190610be2565b60405180910390f35b61017560048036038101906101709190610b70565b610284565b005b34801561018357600080fd5b5061018c6106bc565b6040516101999190610c19565b60405180910390f35b3480156101ae57600080fd5b506101c960048036038101906101c49190610b70565b6106cf565b6040516101d69190610bb8565b60405180910390f35b6101f960048036038101906101f49190610e2c565b6106ef565b005b34801561020757600080fd5b50610222600480360381019061021d9190610ec1565b610a7d565b60405161022f9190610be2565b60405180910390f35b60076020528060005260406000206000915054906101000a900460ff1681565b60045481565b60086020528060005260406000206000915054906101000a900460ff1681565b60035481565b61028c610a95565b60035434146102d0576040517f08c379a00000000000000000000000000000000000000000000000000000000081526004016102c790610f4b565b60405180910390fd5b6008600082815260200190815260200160002060009054906101000a900460ff1615610331576040517f08c379a000000000000000000000000000000000000000000000000000000000815260040161032890610fb7565b60405180910390fd5b600260149054906101000a900460ff16600261034d9190611139565b60045410610390576040517f08c379a0000000000000000000000000000000000000000000000000000000008152600401610387906111d0565b60405180910390fd5b600061039a610ae5565b6103a2610b08565b60006004549050600085905060008060005b600260149054906101000a900460ff1660ff168160ff1610156105f9578360066000600260149054906101000a900460ff1660ff1660ff16815260200190815260200160002081905550600060028661040d919061121f565b036104965783925060098160ff16600a811061042c5761042b611250565b5b0154915060098160ff16600a811061044757610446611250565b5b0154878260ff16600a811061045f5761045e611250565b5b6020020181815250506000868260ff16600a81106104805761047f611250565b5b602002019060ff16908160ff1681525050610518565b600660008260ff1660ff168152602001908152602001600020549250839150600660008260ff1660ff16815260200190815260200160002054878260ff16600a81106104e5576104e4611250565b5b6020020181815250506001868260ff16600a811061050657610505611250565b5b602002019060ff16908160ff16815250505b6000600160009054906101000a900473ffffffffffffffffffffffffffffffffffffffff1673ffffffffffffffffffffffffffffffffffffffff166325701528620249f06040518060400160405280888152602001878152508d6040518463ffffffff1660e01b815260040161058f92919061132a565b6020604051808303818786fa1580156105ac573d6000803e3d6000fd5b50505050506040513d601f19601f820116820180604052508101906105d19190611368565b90508094506002866105e39190611395565b95505080806105f1906113c6565b9150506103b4565b5082965060016005600089815260200190815260200160002060006101000a81548160ff02191690831515021790555060016004600082825461063c91906113ef565b925050819055506001600860008a815260200190815260200160002060006101000a81548160ff0219169083151502179055507fe6ab8667cb740d6c65a4ad321c031eb42f6c5085d5753238d1b2e1e370c134838787876040516106a293929190611552565b60405180910390a1505050505050506106b9610adb565b50565b600260149054906101000a900460ff1681565b60056020528060005260406000206000915054906101000a900460ff1681565b6106f7610a95565b60008160006002811061070d5761070c611250565b5b6020020151905060008260016002811061072a57610729611250565b5b602002015190506007600082815260200190815260200160002060009054906101000a900460ff1615610792576040517f08c379a0000000000000000000000000000000000000000000000000000000008152600401610789906115d7565b60405180910390fd5b6005600083815260200190815260200160002060009054906101000a900460ff166107f2576040517f08c379a00000000000000000000000000000000000000000000000000000000081526004016107e990611643565b60405180910390fd5b60003373ffffffffffffffffffffffffffffffffffffffff1690506000600260009054906101000a900473ffffffffffffffffffffffffffffffffffffffff1673ffffffffffffffffffffffffffffffffffffffff1688888860405180606001604052808981526020018881526020018781525060405160240161087994939291906117e5565b6040516020818303038152906040526311479fea60e01b6020820180517bffffffffffffffffffffffffffffffffffffffffffffffffffffffff83818316178352505050506040516108cb919061189d565b6000604051808303816000865af19150503d8060008114610908576040519150601f19603f3d011682016040523d82523d6000602084013e61090d565b606091505b5050905080610951576040517f08c379a000000000000000000000000000000000000000000000000000000000815260040161094890611900565b60405180910390fd5b60016007600085815260200190815260200160002060006101000a81548160ff021916908315150217905550600033905060008173ffffffffffffffffffffffffffffffffffffffff166003546040516109aa90611946565b60006040518083038185875af1925050503d80600081146109e7576040519150601f19603f3d011682016040523d82523d6000602084013e6109ec565b606091505b5050905080610a30576040517f08c379a0000000000000000000000000000000000000000000000000000000008152600401610a27906119a7565b60405180910390fd5b7f884edad9ce6fa2440d8a54cc123490eb96d2768479d49ff9c7366125a94243643386604051610a61929190611a08565b60405180910390a1505050505050610a77610adb565b50505050565b60066020528060005260406000206000915090505481565b600260005403610ad1576040517f3ee5aeb500000000000000000000000000000000000000000000000000000000815260040160405180910390fd5b6002600081905550565b6001600081905550565b604051806101400160405280600a90602082028036833780820191505090505090565b604051806101400160405280600a90602082028036833780820191505090505090565b6000604051905090565b600080fd5b6000819050919050565b610b4d81610b3a565b8114610b5857600080fd5b50565b600081359050610b6a81610b44565b92915050565b600060208284031215610b8657610b85610b35565b5b6000610b9484828501610b5b565b91505092915050565b60008115159050919050565b610bb281610b9d565b82525050565b6000602082019050610bcd6000830184610ba9565b92915050565b610bdc81610b3a565b82525050565b6000602082019050610bf76000830184610bd3565b92915050565b600060ff82169050919050565b610c1381610bfd565b82525050565b6000602082019050610c2e6000830184610c0a565b92915050565b600080fd5b6000601f19601f8301169050919050565b7f4e487b7100000000000000000000000000000000000000000000000000000000600052604160045260246000fd5b610c8282610c39565b810181811067ffffffffffffffff82111715610ca157610ca0610c4a565b5b80604052505050565b6000610cb4610b2b565b9050610cc08282610c79565b919050565b600067ffffffffffffffff821115610ce057610cdf610c4a565b5b602082029050919050565b600080fd5b6000610d03610cfe84610cc5565b610caa565b90508060208402830185811115610d1d57610d1c610ceb565b5b835b81811015610d465780610d328882610b5b565b845260208401935050602081019050610d1f565b5050509392505050565b600082601f830112610d6557610d64610c34565b5b6002610d72848285610cf0565b91505092915050565b600067ffffffffffffffff821115610d9657610d95610c4a565b5b602082029050919050565b6000610db4610daf84610d7b565b610caa565b90508060408402830185811115610dce57610dcd610ceb565b5b835b81811015610df75780610de38882610d50565b845260208401935050604081019050610dd0565b5050509392505050565b600082601f830112610e1657610e15610c34565b5b6002610e23848285610da1565b91505092915050565b6000806000806101408587031215610e4757610e46610b35565b5b6000610e5587828801610d50565b9450506040610e6687828801610e01565b93505060c0610e7787828801610d50565b925050610100610e8987828801610d50565b91505092959194509250565b610e9e81610bfd565b8114610ea957600080fd5b50565b600081359050610ebb81610e95565b92915050565b600060208284031215610ed757610ed6610b35565b5b6000610ee584828501610eac565b91505092915050565b600082825260208201905092915050565b7f696e636f72726563742d616d6f756e7400000000000000000000000000000000600082015250565b6000610f35601083610eee565b9150610f4082610eff565b602082019050919050565b60006020820190508181036000830152610f6481610f28565b9050919050565b7f6475706c69636174652d636f6d6d69746d656e742d6861736800000000000000600082015250565b6000610fa1601983610eee565b9150610fac82610f6b565b602082019050919050565b60006020820190508181036000830152610fd081610f94565b9050919050565b7f4e487b7100000000000000000000000000000000000000000000000000000000600052601160045260246000fd5b60008160011c9050919050565b6000808291508390505b600185111561105d5780860481111561103957611038610fd7565b5b60018516156110485780820291505b808102905061105685611006565b945061101d565b94509492505050565b6000826110765760019050611132565b816110845760009050611132565b816001811461109a57600281146110a4576110d3565b6001915050611132565b60ff8411156110b6576110b5610fd7565b5b8360020a9150848211156110cd576110cc610fd7565b5b50611132565b5060208310610133831016604e8410600b84101617156111085782820a90508381111561110357611102610fd7565b5b611132565b6111158484846001611013565b9250905081840481111561112c5761112b610fd7565b5b81810290505b9392505050565b600061114482610b3a565b915061114f83610bfd565b925061117c7fffffffffffffffffffffffffffffffffffffffffffffffffffffffffffffffff8484611066565b905092915050565b7f747265652066756c6c0000000000000000000000000000000000000000000000600082015250565b60006111ba600983610eee565b91506111c582611184565b602082019050919050565b600060208201905081810360008301526111e9816111ad565b9050919050565b7f4e487b7100000000000000000000000000000000000000000000000000000000600052601260045260246000fd5b600061122a82610b3a565b915061123583610b3a565b925082611245576112446111f0565b5b828206905092915050565b7f4e487b7100000000000000000000000000000000000000000000000000000000600052603260045260246000fd5b600060029050919050565b600081905092915050565b6000819050919050565b6112a881610b3a565b82525050565b60006112ba838361129f565b60208301905092915050565b6000602082019050919050565b6112dc8161127f565b6112e6818461128a565b92506112f182611295565b8060005b8381101561132257815161130987826112ae565b9650611314836112c6565b9250506001810190506112f5565b505050505050565b600060608201905061133f60008301856112d3565b61134c6040830184610bd3565b9392505050565b60008151905061136281610b44565b92915050565b60006020828403121561137e5761137d610b35565b5b600061138c84828501611353565b91505092915050565b60006113a082610b3a565b91506113ab83610b3a565b9250826113bb576113ba6111f0565b5b828204905092915050565b60006113d182610bfd565b915060ff82036113e4576113e3610fd7565b5b600182019050919050565b60006113fa82610b3a565b915061140583610b3a565b925082820190508082111561141d5761141c610fd7565b5b92915050565b6000600a9050919050565b600081905092915050565b6000819050919050565b6000602082019050919050565b61145981611423565b611463818461142e565b925061146e82611439565b8060005b8381101561149f57815161148687826112ae565b965061149183611443565b925050600181019050611472565b505050505050565b6000600a9050919050565b600081905092915050565b6000819050919050565b6114d081610bfd565b82525050565b60006114e283836114c7565b60208301905092915050565b6000602082019050919050565b611504816114a7565b61150e81846114b2565b9250611519826114bd565b8060005b8381101561154a57815161153187826114d6565b965061153c836114ee565b92505060018101905061151d565b505050505050565b60006102a0820190506115686000830186610bd3565b6115756020830185611450565b6115836101608301846114fb565b949350505050565b7f616c72656164792d7370656e7400000000000000000000000000000000000000600082015250565b60006115c1600d83610eee565b91506115cc8261158b565b602082019050919050565b600060208201905081810360008301526115f0816115b4565b9050919050565b7f6e6f742d726f6f74000000000000000000000000000000000000000000000000600082015250565b600061162d600883610eee565b9150611638826115f7565b602082019050919050565b6000602082019050818103600083015261165c81611620565b9050919050565b600060029050919050565b600081905092915050565b6000819050919050565b600081905092915050565b6116978161127f565b6116a18184611683565b92506116ac82611295565b8060005b838110156116dd5781516116c487826112ae565b96506116cf836112c6565b9250506001810190506116b0565b505050505050565b60006116f1838361168e565b60408301905092915050565b6000602082019050919050565b61171381611663565b61171d818461166e565b925061172882611679565b8060005b8381101561175957815161174087826116e5565b965061174b836116fd565b92505060018101905061172c565b505050505050565b600060039050919050565b600081905092915050565b6000819050919050565b6000602082019050919050565b61179781611761565b6117a1818461176c565b92506117ac82611777565b8060005b838110156117dd5781516117c487826112ae565b96506117cf83611781565b9250506001810190506117b0565b505050505050565b6000610160820190506117fb60008301876112d3565b611808604083018661170a565b61181560c08301856112d3565b61182361010083018461178e565b95945050505050565b600081519050919050565b600081905092915050565b60005b83811015611860578082015181840152602081019050611845565b60008484015250505050565b60006118778261182c565b6118818185611837565b9350611891818560208601611842565b80840191505092915050565b60006118a9828461186c565b915081905092915050565b7f696e76616c69642d70726f6f6600000000000000000000000000000000000000600082015250565b60006118ea600d83610eee565b91506118f5826118b4565b602082019050919050565b60006020820190508181036000830152611919816118dd565b9050919050565b50565b6000611930600083611837565b915061193b82611920565b600082019050919050565b600061195182611923565b9150819050919050565b7f7061796d656e742d6661696c6564000000000000000000000000000000000000600082015250565b6000611991600e83610eee565b915061199c8261195b565b602082019050919050565b600060208201905081810360008301526119c081611984565b9050919050565b600073ffffffffffffffffffffffffffffffffffffffff82169050919050565b60006119f2826119c7565b9050919050565b611a02816119e7565b82525050565b6000604082019050611a1d60008301856119f9565b611a2a6020830184610bd3565b939250505056fea264697066735822122074fd171c36194a2e9500c3a482af7f754c9e04ce93d0f32cbe9500d75a93532664736f6c63430008140033",
  "linkReferences": {},
  "deployedLinkReferences": {}
}